:020000040800F2
:10000000A804002001010008090100080B010008F4
:100010000D0100080F010008110100080000000098
:1000200000000000000000000000000013010008B4
:100030001501000800000000170100081901000860
:100040001B0100081B0100081B0100081B01000820
:100050001B0100081B0100082D070008D907000834
:10006000F10700080908000821080008BD0400087D
:100070001B0100081B0100081B0100081B010008F0
:100080001B0100081B0100081B0100081B010008E0
:100090001B0100081B0100081B01000839080008AB
:1000A0001B0100081B0100081B0100081B010008C0
:1000B000691A0008111C0008FD1C00081B0100083B
:1000C0001B0100081B0100081B0100081B010008A0
:1000D0001B0100081B0100081B0100081B01000890
:1000E000450700081B0100081B010008DFF80CD0C1
:1000F00000F018F800480047DD200008A8040020A0
:100100000648804706480047FEE7FEE7FEE7FEE7B1
:10011000FEE7FEE7FEE7FEE7FEE7FEE7F919000867
:10012000ED000008064C074D06E0E06840F00103D2
:1001300094E8070098471034AC42F6D3FFF7DAFF93
:10014000942C0008B42C00088268002922F00102D7
:1001500018BF0132826070478268002922F48072E1
:1001600018BF02F580728260704700008268002923
:1001700022F4801218BF02F58012826070470000DE
:100180008068C0F380007047C06C80B27047000088
:100190000068084018BF0120704700008068C0F365
:1001A000C000704780B542684FF6FF63CFF6F0732A
:1001B00002EA030C0B680A7943EA0C0343EA0222C1
:1001C000426082684FF2FD73CFF6F17302EA030CCE
:1001D000D1E902E24B7942EA0C0242EA0E0242EA1B
:1001E00043028260C26A097C22F470020139C9B2FA
:1001F00042EA0151C16280BDB0B501EB410C4FF044
:10020000100E092988BFACF11E0C88BF4FF00C0EF0
:1002100050F80E40072505FA0CF5AC4303FA0CF331
:100220002343062A40F80E3003D834306FF004031D
:1002300007E00C2A87BF2C306FF0400330306FF09E
:10024000220302EB820205681A441F23934025EA29
:100250000303914019430160B0BD0000816841F083
:1002600008018160704700008268002922F4A00222
:1002700018BF02F5A002826070470000816841F05B
:100280000401816070470000F0B581B0144601227E
:1002900007230546FFF7B0FFA4B10027002600BFE3
:1002A00028460121FFF7E0FF28460221FFF770FFF3
:1002B0000028F9D02846FFF767FF0137A742064418
:1002C000EED300E00026B6FBF4F080B201B0F0BD42
:1002D000F0B585B042F20044C4F20104A4F5A05583
:1002E00028460121002203230126002700F070FB8D
:1002F000284602210022032300F06AFB284604213D
:100300000022032300F064FB284608210022032377
:1003100000F05EFB4FF4004001F0FAF94FF460206A
:10032000CDE90207694620460097ADF804708DF8C4
:100330001060FFF737FF20460121FFF70DFF204631
:100340000121FFF701FF2046FFF788FF2046FFF756
:1003500025FF0028FAD12046FFF790FF2046FFF73F
:100360000FFF0028FAD120460A210522FFF78CFF53
:1003700040F27801C2F20001088040F27401C2F23A
:100380000001088020460B210522FFF77DFF40F287
:100390007A01C2F20001088040F27601C2F2000147
:1003A000088000F051F8204601210125FFF7DEFE0C
:1003B00000204FF4602104F580640090ADF8040043
:1003C000CDE90210694620468DF81050FFF7EAFE8D
:1003D00020460121FFF7B8FE2046FFF73FFF00BF90
:1003E0002046FFF7DBFE0028FAD12046FFF746FF44
:1003F0002046FFF7C5FE0028FAD105B0F0BD000089
:1004000010B542F60004C4F2010420460D21052275
:10041000FFF73AFF4FF45371484347F65131C3F2A7
:10042000C671A0FB0101880A40F28201C2F20001FC
:10043000088020460C210522FFF726FF40F28401A8
:10044000C2F20001088010BD10B586B0002042F253
:1004500000440190ADF80800CDE903000120C4F28A
:1004600001048DF8140001A92046FFF79BFE2046E9
:100470000A2101220723FFF7BFFE06B010BD0000CE
:1004800010B586B000204FF4802142F20044019064
:10049000ADF80800CDE903100120C4F201048DF885
:1004A000140001A92046FFF77DFE20460B21012202
:1004B0000723FFF7A1FE06B010BD000080B50220A3
:1004C00000F0C2F810B340F23000C2F20000017830
:1004D00071B10021017040F23200C2F200000088C8
:1004E00040F27601C2F200010880FFF7ADFF0DE097
:1004F0000121017040F23200C2F20000008840F297
:100500007401C2F200010880FFF7BAFF022000F078
:1005100001F880BD0422010FC4F2020261F38A22B5
:100520001060704702684FF6FE7C42F0010300291C
:1005300008BF02EA0C0303607047000002684FF630
:10054000FE731A407F230421C4F20203C4F20201A5
:10055000026000229842026042608260C26016DC43
:100560004322C4F2020290422CDC0822C4F20202AE
:10057000904251D01C22C4F2020290424ED030224E
:10058000C4F2020290425ED14FF4706058E040F233
:100590002F42C4F20202904226DC8022C4F2020200
:1005A00090423DD040F20842C4F2020290423AD05A
:1005B00040F21C42C4F20202904244D101F5806133
:1005C000F0203DE04422C4F20202904236D058228C
:1005D000C4F2020290421CD06C22C4F20202904289
:1005E00031D14FF470002BE040F23042C4F20202ED
:1005F00090421CD040F24442C4F2020290421BD00E
:1006000040F25842C4F20202904218BF704701F50E
:1006100080614FF4702013E00F2011E0F0200FE014
:100620004FF070600CE001F580610F2008E001F5EB
:1006300080614FF4706003E001F580614FF4704019
:100640000A681043086070470022010FC4F20202DA
:1006500061F38A221168084018BF0120704700002A
:10066000002A02680CBF22EA0101114301607047B1
:100670002DE9F047026847F6F073D1E9026A9A4320
:1006800001F11007B0CF01F11C0E3243D1E900890E
:100690009EE80A501A4322432A433A43114341EA4F
:1006A0000C0141EA0E010160C0F804A0C0F8088006
:1006B000C0F80C90BDE8F08710B58CB00824C4F2E7
:1006C00002042046FFF73AFF42F24C40C4F2010018
:1006D000019040F23200C2F200000290002001219D
:1006E000CDE904104FF4807107914FF480610891B7
:1006F000202109914FF4005103900690CDE90A1092
:1007000001A92046FFF7B4FF0B20C0F200100090B3
:10071000684600F055FD204602210122FFF7A0FFA8
:1007200020460121FFF7FEFE0CB010BD80B5012070
:1007300000F0C0F8002818BF00F0CCF8012000F04D
:10074000B3F880BD80B54FF4806000F0B3F80028A6
:1007500018BF00F0C1F84FF4806000F0A5F84FF426
:10076000006000F0A7F8002818BF00F0B7F84FF4B9
:10077000006000F099F84FF4805000F09BF80028DA
:1007800018BF00F0ADF84FF4805000F08DF84FF432
:10079000005000F08FF8002818BF00F0A3F84FF4C5
:1007A000005000F081F84FF4804000F083F80028FA
:1007B00018BF00F099F84FF4804000F075F84FF43E
:1007C000004000F077F8002818BF00F08FF84FF4D1
:1007D000004000F069F880BD80B5022000F06AF8A2
:1007E000002818BF00F084F8022000F05DF880BDFA
:1007F00080B5042000F05EF8002818BF00F07AF8F9
:10080000042000F051F880BD80B5082000F052F8B7
:10081000002818BF00F070F8082000F045F880BDEF
:1008200080B5102000F046F8002818BF00F066F8E8
:10083000102000F039F880BD80B5202000F03AF893
:10084000002818BF00F05CF8202000F02DF84020B0
:1008500000F030F8002818BF00F054F8402000F0F5
:1008600023F8802000F026F8002818BF00F04CF88C
:10087000802000F019F84FF4807000F01BF8002879
:1008800018BF00F043F84FF4807000F00DF84FF4FB
:10089000007000F00FF8002818BF00F039F84FF48E
:1008A000007000F001F880BD40F21441C4F2010173
:1008B0000860704740F20041C4F201010A684969CA
:1008C0000240084018BF0120002A18BF0122104032
:1008D000704700007047000070470000704700003C
:1008E000704700007047000070470000704700002C
:1008F000704700007047000070470000704700001C
:10090000704700007047000070470000704700000B
:10091000704700002DE9F041CA7802F00F0CD306B1
:1009200044BF8B784CEA030C09880B0621D005687C
:1009300000234FF001084FF00F0E002608E000BF23
:10094000282A08BF47610136082E03F104030FD09F
:1009500008FA06F70F42F6D00EFA03F425EA04046B
:100960000CFA03F5482A45EA0405E9D10761EAE7EC
:100970000560B1F5807F38BFBDE8F0814468002391
:100980004FF4807E4FF00F08002607E0282A08BFAA
:1009900047610136082E03F1040310D00EFA06F762
:1009A00007EA0105BD42F4D108FA03F5AC430CFA9D
:1009B00003F5482A44EA0504E8D10761E9E7446001
:1009C000BDE8F0811023002A08BF1423C1507047EE
:1009D00080B582B0ADF8041001A98DF807208DF81C
:1009E0000630FFF797FF02B080BD000080B5FFF72B
:1009F000E9FF80BD43F20000C4F200004CF6CC4198
:100A00000160704743F20000C4F200004AF6AA21D8
:100A10000160704743F20401C4F2000108607047AE
:100A200043F20801C4F200010860704743F200017C
:100A3000C4F200010860704780B5FFF7E3FF80BD96
:100A400080B545F25550FFF7F1FF0020FFF7E2FFB8
:100A50004FF44870FFF7E4FFFFF7CCFF80BD0000C4
:100A60008446002848BFC0F1000C10B540F29C033A
:100A70008E46C2F20003002948BFC1F1000EA3F860
:100A800000C040F29E03C2F200030028A3F800E079
:100A900006DD00290BD40624F44538BF05240FE0F9
:100AA000002909DD0424F44588BF032408E0082454
:100AB000F44588BF072403E00224F44538BF01242D
:100AC00040F23400C2F2000063460470F4453CBFBB
:100AD0007346E6464FEA8E20B0FBF3F042F2A211D5
:100AE000C0F6000131F810C040F2A001C2F20001CE
:100AF000A1F800C000EB40004FF4BC71A1EB101056
:100B000042F6A411C0F6000131F81000D903B1FB80
:100B1000F0F0A11E06291060BDE810402BD8DFE8D8
:100B200001F004090E111A232800CCF5804C1FFA9D
:100B30008CF070470CF5804C1FFA8CF0704748F22F
:100B400000000AE048F20000CFF6FF708CEA000CCB
:100B50001FFA8CF070474CF20000CFF6FF70A0EB4C
:100B60000C0C1FFA8CF07047ACF5804C1FFA8CF01F
:100B70007047CCF1000C1FFA8CF0704780B501EB88
:100B8000D17CA0EB5C0C02EBD270ACEB500045F2D8
:100B9000565C4000C5F2555C80FB0C0E881AAD21F6
:100BA000484348F21F51C5F2EB1180FB0101881147
:100BB00000EBD170400080FB0C0102980EEBDE725E
:100BC00001EBD1711A80018080BD000080B541F633
:100BD000F111C0F27651A0FB0112510940F2DC5232
:100BE000904288BF01FB120000F277118BB2934252
:100BF00088BFA0F2654188B200F002F880BD000015
:100C000041F6F111C0F27651A0FB0112510940F2F8
:100C1000DC52904288BF01FB1200C1082E2904D982
:100C200040F2EE21884207D8081A42F6A411C0F615
:100C3000000131F81000704740F2654188420CD83D
:100C400042F6A411C0F6000101EB40004FF624214A
:100C5000CFF6FF71405A4042704740F2DC51081A0B
:100C600042F6A411C0F6000131F81000404270476E
:100C70002DE9F04140F21405C2F20005B5F900502B
:100C8000120444F6D35C02FB05F4C1F2620C84FB4F
:100C90000C4E1B0403FB05F484FB0C4640F21604C7
:100CA000C2F20004B4F9004046F26768624382FB76
:100CB0000C2703FB04F282FB0C230004C6F26668D7
:100CC00080FB08024FEAAE1040F2400500EBDE70F8
:100CD000C2F200050C462861B011991100EBD670E4
:100CE00001EBD3716861B811E960910800EBD7702E
:100CF00001EBD271A860081A01B240F22000C2F2E2
:100D0000000000F025F8210481FB0812D5E9033129
:100D1000401AA861900800EBD270C01A01B240F2EC
:100D20002800C2F2000000F013F8D5E9051340F2E4
:100D30006002411AC2F200021846E961FFF790FE14
:100D400040F23601C2F200010880BDE8F0810000E7
:100D500002464068B2F90030B2F902C003FB01015B
:100D6000C01300FB1C1141F3CF30516070470000ED
:100D70002DE9F04383B040F2020040F26401C2F278
:100D80000000C2F2000100880A8840F20006104408
:100D9000088080B240F2DC514843C2F20006040CE5
:100DA00035882046FFF712FF4543368820464FEA34
:100DB000D539FFF725FF464320464FEAD638FFF7DF
:100DC0001FFF6421484340F2A607C00BC2F2000790
:100DD00038802046FFF7FAFE6FF06301484340F287
:100DE000A402C00BC2F20002B7F90010108040F25A
:100DF0001800C2F20000FFF7ABFF40F2A201C2F2FE
:100E0000000145F3CF3446F3CF350880204629460C
:100E100000F0EEF82046294600F0A8F940F29600CE
:100E200040F2980140F29A0240F28004C2F20000BF
:100E3000C2F20001C2F20002C2F20004B0F90000E6
:100E4000B1F90010B2F90020237800F049F940F21E
:100E5000920140F29402C2F20001C2F20002207834
:100E6000B1F90010B2F9002000F0FCF840F2810066
:100E7000C2F200000078D0B1022702200221022233
:100E800002230097019700F0E9F940F2380040F2A0
:100E90003A0140F23C02C2F20000C2F20001C2F28A
:100EA000000200880988128800F07CFB0DE0002712
:100EB00000200021002200230097019700F0CEF9C6
:100EC00000200021002200F06DFB40F2740040F28F
:100ED0007801C2F20000C2F200010088098840F2E5
:100EE0007A02401A40F27601C2F20001C2F2000218
:100EF00000B240F6974348F21F57098812885843BA
:100F0000C5F2EB1780FB0706881A00B2584380FB36
:100F1000070140F28200C2F2000000880FFA89F255
:100F200046F267634243C6F2666382FB03270FFA09
:100F300088F2504380FB0302701140F26E0300EB15
:100F4000D670C2F2000318804B1103EBD17340F24C
:100F50007201C2F200010B80191840F2700649427A
:100F6000C2F200063180BE0840F27C0506EBD7775E
:100F7000C2F200052F80970840F27E0640F2660418
:100F800007EBD272C2F2000640F26A07C2F2000416
:100F90003280C2F2000709B200B21AB223460097AB
:100FA000FFF7ECFDB4F9001040F20400C2F20000BB
:100FB000FFF7CEFE40F26804C2F20004B7F9001059
:100FC000208040F20C00C2F20000FFF7C1FE034691
:100FD00040F26C07B5F90000B6F90010B4F9002032
:100FE000C2F200073B80FFF743FE03B0BDE8F08389
:100FF000AD2248F21F5C4243C5F2EB1C82FB0C237E
:101000006FF0AC02504380FB0C021FFA81FC980980
:1010100000EBD37001EBDC331BB2A0EB530C900957
:1010200000EBD270A0EB530000294FF000014FEA13
:101030000C43C8BF0121002B4FF000034FEA0040D2
:101040004FF00002C8BF0123002841EA430040F2EC
:101050008001C8BF012240EA8200C2F2000108708C
:10106000704700008B18C3F57A7303EB93734FEA54
:10107000A30C01EBD1710CEB610102EBD273421EA8
:10108000042A01EB630009D8DFE802F018030C1012
:1010900015000A466146844610460FE062468446C3
:1010A00010460BE00A466146944607E062468C46CD
:1010B0000146104602E00A460146104640F2380258
:1010C000C2F20002118040F23A01C2F20001A1F81E
:1010D00000C040F23C01C2F20001088070470000ED
:1010E00080B5A3F1010E40F2920CBEF1040FC2F2E2
:1010F000000C09D80FF20403DFE80EF0030B0F1405
:101100001900ACF8002015E048425142ACF800004C
:1011100010E0ACF8001041420CE05142ACF8001075
:10112000014607E04042ACF80000114602E0ACF88E
:1011300000004942BCF900000AB240F2940E1318B4
:10114000C2F2000EB3F57A7FAEF80010D8BF80BDB2
:101150004FF47A714843514390FBF3F091FBF3F164
:10116000ACF80000AEF8001080BD0000AD22514385
:1011700048F21F52C5F2EB1281FB0212510940F2F4
:10118000960301EBD271C2F20003198000EB40011B
:10119000931101EBD17103EBD27240F2980302EB91
:1011A0005101C2F20003A0EB8000198000EBD07067
:1011B00040F29A0102EB5000C2F200010880704731
:1011C00010B5C17800294EF20011CEF200011AD0FC
:1011D0004EF60C52CEF200021268072323EA1222C6
:1011E0000F23C2F1040C23FA02F24378847890F8BA
:1011F00000E003FA0CF322401A43120101EB0E0344
:1012000083F8002300E080310078012300F01F0202
:1012100003FA02F2C0F3421041F8202010BD000092
:1012200010B582B040F21C20C0F2031001AC019056
:101230002046FFF7C5FF40F22530C0F202100190B2
:101240002046FFF7BDFF40F22630C0F203100190A8
:101250002046FFF7B5FF02B010BD00002DE9F04FAA
:1012600081B042F6204640F60007984691468A46ED
:101270000446C4F201060228C4F2010712D0012C70
:101280003CD004BB30884FF4807120F001003080E6
:10129000384610220323FFF79BFB38464FF480713A
:1012A00000223AE030884FF4807140F00100308035
:1012B00038460022FFF79AFB38464FF48071182217
:1012C0000323FFF785FBBAF1020F2BD0BAF1010F10
:1012D00054D0BAF1000F38D1308807F5806520F07E
:1012E0000400308028464FF4005110220323FFF7FA
:1012F0006FFB28464FF40051002250E030884FF435
:10130000807120F001003080384610220323FFF75F
:101310005FFB38464FF480710122FFF767FBBAF19B
:10132000020FD3D1308807F5806540F0040030808B
:1013300028464FF400510022FFF758FB28464FF48F
:10134000005118220323FFF743FBB9F1020F2BD002
:10135000B9F1010F3AD0B9F1000F48D130884FF4FC
:10136000007120F010003080384610220323FFF770
:101370002FFB38464FF40071002236E0308807F525
:10138000806520F00400308028464FF40051102280
:101390000323FFF71DFB28464FF400510122FFF7FE
:1013A00025FBB9F1020FD3D130884FF4007140F022
:1013B0001000308038460022FFF718FB38464FF403
:1013C000007118220323FFF703FB10E030884FF46D
:1013D000007120F010003080384610220323FFF700
:1013E000F7FA38464FF400710122FFF7FFFA0A9D21
:1013F000B8F1020F18D0B8F1010F2AD0B8F1000FE0
:101400003BD1308807F5806520F0400030802846C9
:101410004FF4804110220323FFF7DAFA28460A9D91
:101420004FF48041002226E0308807F5806540F0C7
:101430004000308028464FF480410022FFF7D6FA62
:1014400028460A9D4FF4804118220323FFF7C0FA73
:1014500013E0308807F5806520F040003080284692
:101460004FF4804110220323FFF7B2FA28460A9D69
:101470004FF480410122FFF7B9FADDF82CB0022DBC
:1014800012D0012D3FD005BB30884FF4806120F48D
:1014900080703080384610220323FFF799FA3846CF
:1014A0004FF4806100223DE030884FF4806140F4C9
:1014B0008070308038460022FFF798FA38464FF4A3
:1014C000806118220323FFF783FABBF1020F2ED0AD
:1014D000BBF1010F40D0BBF1000F51D1308807F5AF
:1014E000806520F48060308028464FF4004110224F
:1014F0000323FFF76DFA28460A9D4FF400410022AE
:10150000FFF774FA3CE030884FF4806120F480707B
:101510003080384610220323FFF75AFA38464FF43A
:1015200080610122FFF762FABBF1020FD0D130884F
:1015300007F5806540F48060308028464FF4004114
:101540000022FFF753FA28460A9D4FF40041182263
:101550000323FFF73DFA13E0308807F5806520F498
:101560008060308028464FF4004110220323FFF7AB
:101570002FFA28460A9D4FF400410122FFF736FA60
:101580004AEA040040EA090040EA0800284340EA29
:101590000B00C0F3400107F5105000F031FC01B022
:1015A000BDE8F08F70B54FF47A73B0F57A7F28BF3D
:1015B00018464FF4E16C44F6D35E00FB0CF0C1F228
:1015C000620EA0FB0E04B1F57A7F28BF194601FB1D
:1015D0000CF0A0FB0E05B2F57A7F38BF134603FB73
:1015E0000CF0C4F38F1142F60044A0FB0E06C4F2C7
:1015F0000104204600F0D2FCC5F38F11204600F014
:10160000CFFCC6F38F11204600F0CCFC70BD00006B
:10161000F0B587B042F60044C4F20104A4F51055B9
:1016200028464FF4807118220323FFF7D1F9A4F55F
:10163000005630464FF4005118220323FFF7C8F933
:1016400028464FF4007118220323FFF7C1F93046F2
:101650004FF4804118220323FFF7BAF928464FF4CC
:10166000806118220323FFF7B3F930464FF400419D
:1016700018220323FFF7ACF94FF4001004904FF445
:10168000E160059004A9204600F08EFC6D466026BE
:10169000002720462946ADF80060CDF80270CDF84D
:1016A0000670ADF80A7000F0C9FB20462946ADF877
:1016B0000060CDF80270CDF80670ADF80A7000F049
:1016C000F5FB20462946ADF80060CDF80270CDF854
:1016D0000670ADF80A7000F025FC42F64440C4F2F2
:1016E0000100018821F00F010180018841F06C01A7
:1016F00001802046012100F06BFB2046012100F013
:1017000075FB2046002100F07BFB07B0F0BD000018
:1017100041F20401C4F202010A6822F4404210437B
:1017200008607047002941F21401C4F202010A68FE
:101730000CBF22EA0000104308607047002941F204
:101740001C01C4F202010A680CBF22EA0000104327
:1017500008607047002941F21801C4F202010A68CA
:101760000CBF22EA000010430860704741F20000FD
:10177000C4F202000168002241F0010101604168E9
:10178000CFF6FF021140416001684FF6FF72CFF6BD
:10179000F66211400160016821F480210160416816
:1017A00021F4FE0141604FF41F0181607047000089
:1017B0000121B1EB501F41F20001C4F2020104D03B
:1017C0004209022A14BF24312031096800F01F00A9
:1017D00021FA00F000F001007047000041F204001F
:1017E000C4F20200006800F00C00704741F20401EE
:1017F000C4F202010A6822F0F00210430860704748
:1018000041F20001C4F202010A68B0F5803F22F4FF
:1018100080320A600A6822F480220A6005D0B0F59E
:10182000802F18BF70474FF4A0200A68104308604B
:101830007047000041F20401C4F202010A6822F478
:10184000E06210430860704741F20401C4F20201F3
:101850000A6822F4605242EAC00008607047000043
:101860006021C4F2422108607047000041F2040286
:10187000C4F202021368084323F47C131843106077
:101880007047000041F20401C4F202010A6822F02C
:10189000030210430860704780B582B000200190B9
:1018A0003120FFF785FF019901F1010101910199B3
:1018B00010B9B1F5A06FF3D13120FFF779FF0028FF
:1018C00018BF012002B080BD80B5FFF74FFF4FF475
:1018D0008030FFF795FF00BFFFF7DEFF0028FBD049
:1018E0004FF480304FF4E011FFF7C0FF0120FFF705
:1018F000B7FF0220FFF7C6FFFFF770FF0828FBD1F4
:101900000020FFF773FF4FF48060FFF793FF002084
:10191000FFF79AFF01200121FFF704FF03200121B7
:10192000FFF70CFF40F61D600121FFF713FF80BD9C
:1019300080B500F001F880BD82B041F204000021C2
:10194000C4F202000191009150F8041C41F480316E
:1019500040F8041C50F8041C01F400310091019976
:1019600001310191009919B90199B1F5A06FF1D137
:1019700050F8041C890354BF0021012100910099F3
:10198000012936D142F20001C4F202010A6842F094
:1019900010020A600A6822F007020A600A6842F030
:1019A00002020A600168016001680160016841F497
:1019B00080610160016821F47C110160016841F4DB
:1019C000E811016050F8041C41F0807140F8041CDB
:1019D00050F8041C8901FBD5016821F00301016066
:1019E000016841F002010160016801F00C01082961
:1019F000FAD102B07047000080B541F20000C4F295
:101A000002000168002241F0010101604168CFF647
:101A1000FF021140416001684FF6FF72CFF6F66297
:101A200011400160016821F480210160416821F4C6
:101A3000FE0141604FF41F018160FFF779FF4EF610
:101A40000850CEF200004FF00061016080BD000040
:101A500070470000704700007047000070470000AA
:101A6000704700007047000080B54FF080400121B2
:101A700000F0D2F9002818BF00F06AF84FF080405B
:101A8000012100F0AFF94FF08040022100F0C4F9CD
:101A9000002818BFFFF7DEFF4FF08040022100F062
:101AA000A1F94FF08040042100F0B6F9002818BFDA
:101AB000FFF7D2FF4FF08040042100F093F94FF080
:101AC0008040082100F0A8F9002818BFFFF7C6FFE2
:101AD0004FF08040082100F085F94FF08040102140
:101AE00000F09AF9002818BFFFF7BAFF4FF08040C6
:101AF000102100F077F94FF08040202100F08CF9A0
:101B0000002818BFFFF7AEFF4FF08040202100F003
:101B100069F94FF08040402100F07EF9002818BF9D
:101B200000F014F84FF08040402100F05BF94FF0D6
:101B30008040802100F070F9002818BFFFF788FF6F
:101B40004FF08040802100F04DF980BD70470000CB
:101B500080B5FFF70DF940F23E00C2F200000278B6
:101B60000178D20701D10A220CE00278042906D2BA
:101B700002F0FE010170017841F0020104E00178F9
:101B8000043A920862F39F01017040F28C00C2F2A5
:101B90000000018800291CBF0139018040F290003B
:101BA000C2F20000018800291CBF0139018040F207
:101BB0008A00C2F20000018800291CBF013901809F
:101BC00040F28800C2F20000018800291CBF0139E0
:101BD000018040F28E00C2F20000018800291CBF83
:101BE0000139018040F28600C2F20000018800291C
:101BF0001CBF0139018080BD7047000070470000A4
:101C000070470000704700007047000070470000F8
:101C100010B540F20044C4F200042046012100F057
:101C2000FBF8002818BF00F05BF82046012100F007
:101C3000D9F82046022100F0EFF8002818BFFFF77E
:101C4000DDFF2046022100F0CDF82046042100F0FF
:101C5000E3F8002818BFFFF7D3FF2046042100F067
:101C6000C1F82046082100F0D7F8002818BFFFF778
:101C7000C9FF2046082100F0B5F82046102100F0E9
:101C8000CBF8002818BFFFF7BFFF2046102100F057
:101C9000A9F82046202100F0BFF8002818BFFFF760
:101CA000B5FF2046202100F09DF82046402100F09D
:101CB000B3F8002818BF00F011F82046402100F0CA
:101CC00091F82046802100F0A7F8002818BFFFF700
:101CD00093FF2046802100F085F810BD704700007A
:101CE0007047000070470000704700007047000018
:101CF00070470000704700007047000010B540F6C4
:101D00000004C4F200042046012100F085F80028F8
:101D100018BF00F05BF82046012100F063F8204670
:101D2000022100F079F8002818BFFFF7DDFF2046F8
:101D3000022100F057F82046042100F06DF8002839
:101D400018BFFFF7D3FF2046042100F04BF82046D0
:101D5000082100F061F8002818BFFFF7C9FF2046EE
:101D6000082100F03FF82046102100F055F8002827
:101D700018BFFFF7BFFF2046102100F033F82046C0
:101D8000202100F049F8002818BFFFF7B5FF2046D2
:101D9000202100F027F82046402100F03DF80028DF
:101DA00018BF00F011F82046402100F01BF8204633
:101DB000802100F031F8002818BFFFF793FF20467C
:101DC000802100F00FF810BD704700007047000040
:101DD0000288002918BF012122F0800242EAC111C5
:101DE00001807047C94301827047000002880029C2
:101DF00018BF012122F00102114401807047000048
:101E0000B0F84420002918BF01216FF3DF3242EA05
:101E1000C131A0F844107047028A80890A4018BF77
:101E20000122084018BF012010407047002A828913
:101E30000CBF22EA0101114381817047B0B5028CC9
:101E400022F001020284038C8288B0F818C00C8949
:101E500023F002032343A0F180444D88A4F5963477
:101E6000B1F800E04FEAB424072C43EA050313D885
:101E7000012505FA04F414F0E50F0DD04C8923F088
:101E80000C0324F004048D8823438C892B4322F413
:101E90004072CD8922432A432CF0730545EA0E0592
:101EA00082800583C98881860384B0BDB0B5028C69
:101EB00043F2004422F010020284028C8588B0F8BC
:101EC00018C00B8922F0200242EA03124B88C4F2A8
:101ED0000104B1F800E0A04242EA031205D042F644
:101EE0000043C4F20103984212D14B896FF04004C1
:101EF00022F0C00204EA03138C881A4342EA041257
:101F00008C8925F44063CD8943EA840343EA85053F
:101F10002CF4E64343EA0E2385800383C9880187B6
:101F20000284B0BDB0B5028C43F2004422F480724A
:101F30000284028C8588B0F81CC00B8922F40072E0
:101F400042EA03224B88C4F20104B1F800E0A04247
:101F500042EA032205D042F60043C4F2010398424C
:101F600012D14B8940F2FF441B0222F44062A3438A
:101F70008C881A4342EA04228C8925F44053CD8987
:101F800043EA041343EA05152CF0730343EA0E03F6
:101F900085808383C98881870284B0BD818670472C
:101FA000018770478187704740F6FF33B0F800C063
:101FB000C4F2000398420FDCB0F1804F1ED040F213
:101FC0000043C4F20003984218D040F60003C4F264
:101FD0000003984212D016E040F60043C4F200031A
:101FE00098420BD043F20043C4F20103984205D05B
:101FF00042F60043C4F20103984204D14B882CF00E
:10200000700243EA020C41F2004240F48063C4F2E1
:102010000002934204D0CA882CF4407342EA030CB5
:10202000A0F800C08A888285A0F18042A2F596328D
:102030000B884FEAB222072A038507D8012303FA47
:1020400002F212F0E50F1CBF097A0186012181829C
:102050007047000080B584B001200121FFF76EFBBE
:10206000472001906420029001A94FF08040FFF7C3
:102070009BFF4FF0804001210122FFF7D7FE4FF078
:1020800080400121FFF7B2FE04B080BD40F23E0067
:10209000C2F20000017841F0010101700178890766
:1020A000FCD5017801F0FD010170704710B582B0D8
:1020B0000021ADF80610BDF8061081420BD204468F
:1020C000FFF7E4FFBDF806000130ADF80600BDF8EB
:1020D0000600A042F4D302B010BD0000FFF7F4FBED
:1020E000FEF7AEFCFFF7B6FFFFF792FAFEF7F0F847
:1020F000FEF7E2FAFFF794F80A20FFF7D7FF40F265
:102100008C0B40F2900640F28A0440F2880740F2BD
:102110008E0540F28609C2F2000BC2F20006C2F23E
:1021200000044FF0640AC2F20007C2F20005C2F2D6
:1021300000094FF47A7805E0B9F80000002808BFDC
:10214000A9F80080BBF8000020B90A20ABF8000015
:10215000FEF772FC3088002804BF322030802088CF
:10216000002808BFA4F800A03888002808BFA7F8F6
:1021700000A028880028DFD14FF4FA702880FEF7ED
:102180003FF9D9E702E008C8121F08C1002AFAD1B6
:1021900070477047002001E001C1121F002AFBD1E7
:1021A000704700000A0014001F00290033003D00A2
:1021B000470051005C00660070007A0084008F00C8
:1021C0009900A300AD00B700C200CC00D600E0002B
:1021D000EA00F400FF00090113011D01270131018C
:1021E0003C01460150015A0164016F0179018301EC
:1021F0008D019701A101AC01B601C001CA01D40152
:10220000DE01E901F301FD01070211021B022602B2
:1022100030023A0244024E02580262026D02770214
:1022200081028B0295029F02A902B402BE02C8027B
:10223000D202DC02E602F002FB0205030F031903DF
:1022400023032D03370341034C03560360036A0342
:1022500074037E03880392039C03A703B103BB03AB
:10226000C503CF03D903E303ED03F70301040C0413
:10227000160420042A0434043E04480452045C0476
:10228000660470047A0484048E049904A304AD04E3
:10229000B704C104CB04D504DF04E904F304FD044E
:1022A000070511051B0525052F05390543054D05B6
:1022B000570561056B0575057F05890593059D0526
:1022C000A705B105BB05C505CF05D905E305ED0596
:1022D000F70501060B0615061F06290633063D06FF
:1022E000470651065B0665066E06780682068C0672
:1022F0009606A006AA06B406BE06C806D206DC06E6
:10230000E506EF06F90603070D07170721072B0758
:1023100035073E07480752075C07660770077A07CC
:1023200083078D079707A107AB07B507BE07C80747
:10233000D207DC07E607EF07F90703080D081708BF
:1023400020082A0834083E08480851085B08650838
:102350006F08780882088C0896089F08A908B308B7
:10236000BD08C608D008DA08E308ED08F708010937
:102370000A0914091E09270931093B0944094E09B4
:10238000580961096B0975097E09880992099B0939
:10239000A509AE09B809C209CB09D509DE09E809C2
:1023A000F209FB09050A0E0A180A220A2B0A350A45
:1023B0003E0A480A510A5B0A640A6E0A770A810AD1
:1023C0008B0A940A9E0AA70AB10ABA0AC40ACD0A5D
:1023D000D70AE00AE90AF30AFC0A060B0F0B190BED
:1023E000220B2C0B350B3F0B480B510B5B0B640B7B
:1023F0006E0B770B800B8A0B930B9D0BA60BAF0B11
:10240000B90BC20BCB0BD50BDE0BE70BF10BFA0BA9
:10241000030C0D0C160C1F0C290C320C3B0C450C3C
:102420004E0C570C600C6A0C730C7C0C860C8F0CD9
:10243000980CA10CAB0CB40CBD0CC60CCF0CD90C79
:10244000E20CEB0CF40CFD0C070D100D190D220D18
:102450002B0D340D3E0D470D500D590D620D6B0DBA
:10246000740D7D0D870D900D990DA20DAB0DB40D62
:10247000BD0DC60DCF0DD80DE10DEA0DF30DFC0D10
:10248000050E0F0E180E210E2A0E330E3C0E450EB1
:102490004E0E560E5F0E680E710E7A0E830E8C0E67
:1024A000950E9E0EA70EB00EB90EC20ECB0ED40E18
:1024B000DC0EE50EEE0EF70E000F090F120F1B0FCC
:1024C000230F2C0F350F3E0F470F500F580F610F82
:1024D0006A0F730F7C0F840F8D0F960F9F0FA70F3E
:1024E000B00FB90FC20FCA0FD30FDC0FE50FED0FFE
:1024F000F60FFF0F07101010191021102A103310BB
:102500003B1044104D1055105E1067106F1078107E
:102510008010891092109A10A310AB10B410BC1048
:10252000C510CE10D610DF10E710F010F810011112
:10253000091112111A1123112B1134113C114511DB
:102540004D1156115E1166116F11771180118811AE
:1025500091119911A111AA11B211BB11C311CB1183
:10256000D411DC11E411ED11F511FD1106120E125A
:1025700016121F1227122F12371240124812501231
:1025800059126112691271127A1282128A1292120F
:102590009A12A312AB12B312BB12C312CC12D412F2
:1025A000DC12E412EC12F412FC1205130D131513D5
:1025B0001D1325132D1335133D1345134D135513BB
:1025C0005E1366136E1376137E1386138E139613A3
:1025D0009E13A613AE13B613BE13C613CE13D61393
:1025E000DE13E613ED13F513FD1305140D14151486
:1025F0001D1425142D1435143D1444144C14541476
:102600005C1464146C1473147B1483148B1493146F
:102610009B14A214AA14B214BA14C114C914D1146C
:10262000D914E014E814F014F814FF1407150F156A
:1026300016151E1526152D1535153D1544154C1569
:1026400054155B1563156B1572157A15811589156F
:1026500091159815A015A715AF15B715BE15C61578
:10266000CD15D515DC15E415EB15F315FA15021685
:10267000091611161816201627162F1636163E168E
:1026800045164C1654165B1663166A1671167916A3
:10269000801688168F1696169E16A516AC16B416BA
:1026A000BB16C216CA16D116D816E016E716EE16D5
:1026B000F616FD1604170B1713171A1721172817EC
:1026C000301737173E1745174C1754175B1762170B
:1026D0006917701778177F1786178D1794179B1730
:1026E000A217AA17B117B817BF17C617CD17D41757
:1026F000DB17E217E917F017F717FE1706180D1882
:1027000014181B1822182918301837183E184518A5
:102710004C1853185A18601867186E1875187C18DA
:1027200083188A18911898189F18A618AD18B3180E
:10273000BA18C118C818CF18D618DD18E318EA1847
:10274000F118F818FF1806190C1913191A1921197C
:1027500028192E1935193C194319491950195719B7
:102760005D1964196B19721978197F1986198C19FA
:1027700093199A19A019A719AE19B419BB19C2193E
:10278000C819CF19D519DC19E319E919F019F61987
:10279000FD19041A0A1A111A171A1E1A241A2B1ACA
:1027A000311A381A3E1A451A4B1A521A581A5F1A19
:1027B000651A6C1A721A791A7F1A861A8C1A931A69
:1027C000991A9F1AA61AAC1AB31AB91AC01AC61ABD
:1027D000CC1AD31AD91ADF1AE61AEC1AF21AF91A15
:1027E000FF1A051B0C1B121B181B1F1B251B2B1B69
:1027F000321B381B3E1B441B4B1B511B571B5D1BC5
:10280000641B6A1B701B761B7D1B831B891B8F1B24
:10281000951B9C1BA21BA81BAE1BB41BBA1BC11B88
:10282000C71BCD1BD31BD91BDF1BE51BEB1BF21BEF
:10283000F81BFE1B041C0A1C101C161C1C1C221C52
:10284000281C2E1C341C3A1C401C461C4C1C521CC0
:10285000581C5E1C641C6A1C701C761C7C1C821C30
:10286000881C8E1C941C9A1CA01CA61CAC1CB21CA0
:10287000B81CBE1CC31CC91CCF1CD51CDB1CE11C16
:10288000E71CED1CF31CF81CFE1C041D0A1D101D8A
:10289000161D1B1D211D271D2D1D331D381D3E1D01
:1028A000441D4A1D4F1D551D5B1D611D661D6C1D80
:1028B000721D781D7D1D831D891D8E1D941D9A1D01
:1028C000A01DA51DAB1DB11DB61DBC1DC21DC71D84
:1028D000CD1DD31DD81DDE1DE31DE91DEF1DF41D0B
:1028E000FA1DFF1D051E0B1E101E161E1B1E211E8F
:1028F000261E2C1E321E371E3D1E421E481E4D1E19
:10290000531E581E5E1E631E691E6E1E741E791EA7
:102910007F1E841E8A1E8F1E941E9A1E9F1EA51E39
:10292000AA1EB01EB51EBA1EC01EC51ECB1ED01ECE
:10293000D51EDB1EE01EE61EEB1EF01EF61EFB1E65
:10294000001F061F0B1F101F161F1B1F201F261FF7
:102950002B1F301F361F3B1F401F451F4B1F501F93
:10296000551F5A1F601F651F6A1F6F1F751F7A1F33
:102970007F1F841F8A1F8F1F941F991F9E1FA41FD4
:10298000A91FAE1FB31FB81FBD1FC31FC81FCD1F78
:10299000D21FD71FDC1FE11FE61FEC1FF11FF61F20
:1029A000FB1F00200000890013019C012502AE02DC
:1029B0003703C1034A04D3045C05E5056E06F70638
:1029C00081070A0892081B09A4092D0AB60A3F0BC1
:1029D000C70B500CD90C610DEA0D720EFA0E830F65
:1029E0000B1093101B11A3112B12B3123B13C21324
:1029F0004A14D1145915E0156716EE167517FC1711
:102A000083180A199019171A9D1A231BA91B2F1C2A
:102A1000B51C3B1DC01D461ECB1E501FD51F5A2086
:102A2000DF206321E8216C22F0227423F8237C2428
:102A3000FF248225052688260B278E271028932819
:102A400015299729182A9A2A1B2B9C2B1D2C9E2C62
:102A50001F2D9F2D1F2E9F2E1F2F9E2F1E309D300E
:102A60001B319A31193297321533923310348D3429
:102A70000A35873504368036FC367837F3376F38B9
:102A8000EA386539DF39593AD43A4D3BC73B403CC7
:102A9000B93C323DAA3D223E9A3E123F893F00405A
:102AA0007740ED406341D9414F42C4423943AE4380
:102AB000224496440A457D45F0456346D64648473C
:102AC000BA472B489C480D497E49EE495E4ACD4A9B
:102AD0003D4BAB4B1A4C884CF64C644DD14D3D4EA2
:102AE000AA4E164F824FED4F5850C3502D5197515B
:102AF00001526A52D3523B53A3530B547254D954CC
:102B00004055A6550C567156D6563B579F570358FD
:102B10006758CA582C598F59F059525AB35A145BF6
:102B2000745BD45B335C925CF15C4F5DAD5D0A5EBF
:102B3000675EC35E1F5F7B5FD65F31608B60E56061
:102B40003F619861F0614862A062F7624E63A563DD
:102B5000FB635064A564FA644E65A165F56547663C
:102B60009A66EC663D678E67DE672E687E68CD6884
:102B70001B696A69B769046A516A9D6AE96A346BBC
:102B80007F6BC96B136C5C6CA56CED6C356D7D6DEA
:102B9000C36D0A6E506E956EDA6E1E6F626FA66F11
:102BA000E86F2B706D70AE70EF702F716F71AE713A
:102BB000ED712C726972A772E37220735B73977365
:102BC000D1730C7445747E74B774EF7427755E7599
:102BD0009475CA750076357669769D76D0760377DA
:102BE000357767779877C977F9772878577886782F
:102BF000B478E1780E793B7966799279BC79E67997
:102C0000107A397A617A897AB17AD87AFE7A247B15
:102C1000497B6E7B927BB57BD87BFB7B1C7C3E7CAF
:102C20005E7C7F7C9E7CBD7CDC7CFA7C177D347D69
:102C3000507D6C7D877DA27DBC7DD57DEE7D067E41
:102C40001E7E357E4C7E627E777E8C7EA07EB47E3C
:102C5000C77EDA7EEC7EFE7E0F7F1F7F2F7F3E7F5A
:102C60004C7F5B7F687F757F817F8D7F987FA37F9F
:102C7000AD7FB67FBF7FC87FCF7FD77FDD7FE37F0C
:102C8000E97FEE7FF27FF67FF97FFB7FFD7FFF7F9D
:102C9000FF7FFF7FB82C00080000002030000000FC
:102CA00084210008E82C000830000020780400008F
:102CB00094210008000000002C013200D007D0074A
:102CC00000000000D007D007000000000100010054
:102CD000A100230000000000A1002300000000006C
:082CE000A10023000000000028
:04000005080000ED02
:00000001FF
